:020000040800F2
:10000000780B00200D25000815250008172500088D
:10001000192500081B2500081D2500080000000008
:100020000000000000000000000000001F25000884
:10003000212500080000000023250008850E000887
:100040002725000827250008272500082725000860
:100050002725000827250008272500082725000850
:100060002725000827250008272500082725000840
:10007000670E000827250008430E00082725000802
:1000800027250008550E0008272500082725000809
:100090002725000827250008272500082725000810
:1000A0002725000827250008272500082725000800
:1000B00027250008272500082725000827250008F0
:1000C00027250008272500082725000827250008E0
:1000D000272500080D0E00081F0E0008310E00082D
:1000E00027250008272500082725000800F002F82A
:1000F00000F043F80AA090E8000C82448344AAF17F
:100100000107DA4501D100F038F8AFF2090EBAE87C
:100110000F0013F0010F18BFFB1A43F0010318473B
:10012000E433000004340000103A24BF78C878C1DA
:10013000FAD8520724BF30C830C144BF04680C60ED
:10014000704700000023002400250026103A28BF35
:1001500078C1FBD8520728BF30C148BF0B60704739
:100160001FB59DE8030002F04BFB02F0E3FA1FBD50
:1001700010B5002002F05BFC10BD02F09EFB1146A2
:10018000FFF7EEFF00F0DAF802F0D6FB03B4FFF75A
:10019000EFFF03BC02F00CFC10B502460B46002436
:1001A000002103E0505C0444481CC1B29942F9DBD1
:1001B000E0B210BD30B502460024002303E0D05C5D
:1001C0000444581CC3B2481E9842F8DCE5B2105CE7
:1001D000A84201D1012030BD0020FCE7F0B5074660
:1001E000AA20DB490870487008468770032506E09E
:1001F000E81ED849085CD6494855681CC5B2072D89
:10020000F6DB072407E0E01FD249491D085CD0490E
:100210000855601CC4B2172CF5DB1721CC48FFF73A
:10022000BBFF0646CA48C675F0BD2DE9F04107463A
:100230008846AA20C8490870487008468770032578
:1002400006E0E81EC349085CC3494855681CC5B2AE
:10025000072DF6DB072408E0C04800EB0811E01F7B
:10026000085CBD490855601CC4B2172CF4DB17218B
:10027000B948FFF791FF0646B748C675BDE8F0815B
:100280000278511CCA1701EB92729210A1EB820204
:1002900072B10178491C01700278511CCA1701EB38
:1002A00092729210A1EB820212B90178491C01707E
:1002B0007047014600220878AA2811D14878AA2858
:1002C0000ED1887801280BD100BF05E0D01C085C56
:1002D000A24B9854501CC2B2102AF7DB042070477E
:1002E0000878AA2812D14878AA280FD1887802283D
:1002F0000CD1002206E0D01C0B5C984810308354CF
:10030000501CC2B2102AF6DB0520E8E70878AA28BC
:1003100012D14878AA280FD1887803280CD100225E
:1003200006E0D01C0B5C8D4820308354501CC2B2B8
:10033000102AF6DB0620D2E73F20D0E708B54FF4BD
:10034000FA61874800F013FE824800F0A2FE022105
:10035000834800F00CFE7F4801F015F80221804828
:1003600000F005FED6E07F4800F0DCFB794800F0A5
:10037000C2FF784800F0F5FF70B101227A49794850
:1003800000F0DDFA01227949764800F0D8FA05221A
:100390007049744800F0D3FA6E49084601F09AF8A3
:1003A00073484078734908706A48734B0090084658
:1003B00002786021674801F0C0F87049087008466B
:1003C000007800287ED1634A521D6A480178501F88
:1003D00001F0E8F838B90120FFF700FF18225C4966
:1003E000604800F0ACFA6348FFF74AFF594A521DD3
:1003F00060480178501F01F0D5F838B90220FFF7A6
:10040000EDFE18225249574800F099FA5948FFF773
:1004100037FF504A521D57480178501F01F0C2F86B
:1004200088B90320FFF7DAFE182249494D4800F049
:1004300086FA4C4800F06FFB142804DA1822504961
:10044000484800F07CFA474800F065FB14285EDB62
:1004500014224C49434800F0F6FA4A48FFF729FFB6
:100460004449087008460078042814D13B4A0846DD
:100470000178384801F0B4F868B900210120FFF78D
:10048000D4FE18223449374800F059FA18223C4962
:10049000344800F054FA37480078052817D12F4A1D
:1004A0001032344801782B4801F09AF878B90121CC
:1004B0000220FFF7BAFE182227492A4800F03FFA27
:1004C000182200E01EE02E49264800F038FA29489C
:1004D000007806281BD1214A2032264801781D4881
:1004E00001F07EF868B902210320FFF79EFE182272
:1004F00019491C4800F023FA18222149194800F034
:100500001EFA04E001222049164800F018FA1148AA
:1005100000F09AFF27E710B588B000200323CDE94B
:10052000043006900790012007211A460023CDE9E8
:100530000032CDE902104FF4E1320146094800F0E3
:1005400045F80446114A124902F058FA08B010BDA5
:1005500050020020FC0400201C0300207C0200202C
:1005600048000020880000201E0000201F000020FE
:10057000060000201A0000200000002018000020C3
:1005800020000020680200201C000020000000085D
:10059000970500087047FE4AD0F8B811914203D180
:1005A0000021FC4A116010E0FB4AD0F8B8119142DA
:1005B00003D10021F94A116007E0F94AD0F8B811D7
:1005C000914202D10021F74A116070472DE9F04FA6
:1005D00093B004460E4692469B461C9F204602F06E
:1005E000E2FA044604F1D00002F0DDFAA0F1D004F2
:1005F000002084F8C40184F8C5B1032084F8C60142
:1006000018208DF84B0003208DF84A008DF8460025
:1006100004208DF84700012E35D1DD48C4F8B8011B
:100620004FF0250894F8C50150B1DF48C4F8B40173
:100630004FF00E097003C4F8BC014010C4F8C001AB
:10064000D4480460012F10D1012144F2090001F0C7
:10065000F5FC0121042001F006FB4020ADF8480024
:100660008020ADF84400D14DA1E0012144F2050005
:1006700001F0E4FC4FF40070ADF848004000ADF824
:100680004400CB4D93E0022E3BD1C348C4F8B801DF
:100690004FF0260894F8C50158B1C3483C30C4F85F
:1006A000B4014FF011098004C4F8BC014010C4F833
:1006B000C001BA480460012F13D10121480401F0A0
:1006C000CAFC0121212001F0B9FC0121082001F020
:1006D000CAFA2020ADF848004020ADF84400B54DDE
:1006E00065E00121480401F0B6FC0121052001F07C
:1006F000A5FC0420ADF848000820ADF84400AC4D3E
:1007000055E0032E53D1A648C4F8B8014FF027088E
:1007100094F8C50158B1A4482838C4F8B4014FF082
:100720000C092020C4F8BC011020C4F8C0019D4869
:100730000460012F13D10121880401F08CFC0121F8
:10074000112001F07BFC01219B4801F08CFAB802DA
:10075000ADF848004000ADF84400984D27E0112F57
:1007600015D10121880401F076FC0121212001F03E
:1007700065FC01219048203001F075FA4FF480703B
:10078000ADF848004000ADF844008A4D0FE001216B
:10079000880401F060FC0121092001F04FFC4FF4B6
:1007A0008060ADF848004000ADF844007F4D12A9CC
:1007B000284601F087F911A9284601F083F9CDF800
:1007C00034A02298ADF838002398ADF83A0021986B
:1007D000ADF83C000020ADF840000C20ADF83E0024
:1007E0000DA9D4F8B80101F0D0FC0121D4F8B8016A
:1007F00001F057FD94F8C50100283FD00122802167
:10080000D4F8B80101F07EFD0121084601F009FC91
:10081000D4F8B801001D019004F5D07002901020AA
:1008200003900020049005908020069000200790FF
:1008300008900990209820B1012806D002280CD1F8
:1008400007E04FF440500A900AE04FF400500A903D
:1008500006E04FF480500A9002E000200A9000BFAA
:1008600000BF00200B9001A9D4F8B40101F042F8B8
:100870000021D4F8B40101F068F806E0002240F24B
:100880002661D4F8B80101F018FD1D9830B1012897
:1008900009D002280CD004280FD113E04FF4E060F7
:1008A00000F018FF13E04FF4C06000F013FF0EE0FB
:1008B0004FF4A06000F00EFF09E04FF4806000F0FC
:1008C00009FF04E04FF4407000F004FF00BF00BFD8
:1008D0008DF830801E988DF831001F988DF8320009
:1008E00001208DF833000CA800F0F9FE012240F23F
:1008F0002551D4F8B80101F0E0FC94F8C501D0B15D
:100900008DF830901E988DF831001F988DF83200C8
:100910000CA800F0E4FED4F8B401006840F0020036
:10092000D4F8B4110860D4F8B401006840F00800AD
:10093000D4F8B4110860204613B0BDE8F08F2DE95B
:10094000F04104460E461546AAB23146204602F052
:10095000F6F894F8C50198B394F8C40180BB20461A
:1009600002F016F9002841DD012084F8C401204678
:1009700002F00EF914282ADC204602F009F9D4F816
:10098000B4114860204602F003F907463A4618E0E1
:10099000003801403C00002000440040400000209E
:1009A000004800404400002044000240000C014088
:1009B0000008014000140140100014000010014024
:1009C00014E004F5D071204602F093F809E01420F9
:1009D000D4F8B4114860142204F5D071204602F016
:1009E00088F80121D4F8B40100F0AFFF94F8C501F4
:1009F00030BB94F8C40118BB204602F0C9F80028A7
:100A00001EDD40F22661D4F8B80101F065FD012237
:100A100040F22661D4F8B80101F04FFC4021D4F82F
:100A2000B80101F019FD012084F8C401F249204603
:100A300002F01EF8F0490978D4F8B80101F09EFCE4
:100A40000120BDE8F08170B504460E46154604F15C
:100A5000D00002F09DF8A84201DA002070BD2A46BD
:100A6000314604F1D00002F044F80120F6E72DE908
:100A7000F04786B0044688460025A94600BF0027F7
:100A8000AA46D4F8B8A101A801F06BFADB48824568
:100A900002D1DDF8109001E0DDF80C90D4F8B80137
:100AA000808900F4004040B109EBC90000EB091057
:100AB0004FEA4801B0FBF1F607E009EBC90000EB93
:100AC00009104FEA8801B0FBF1F66420B6FBF0F0A4
:100AD00005012809642101FB1067D4F8B801808959
:100AE00000F4004040B1322000EBC700B0FBF1F051
:100AF00000F00700054308E0322000EB07106421F6
:100B0000B0FBF1F000F00F000543D4F8B8110D81EF
:100B100006B0BDE8F08710B5044604F1D00002F03D
:100B200037F810BD10B5044604F1D00002F034F8D7
:100B300010BD10B50446204602F02EF810BD38B5A1
:100B4000044640F22551D4F8B80101F09BFC88B16D
:100B5000D4F8B80101F016FCC0B26946009004F167
:100B6000D00001F0A4FF40F22551D4F8B80101F003
:100B7000B3FC00BF40F22771D4F8B80101F082FC49
:100B8000E0B1204602F004F8002809DD9C49204627
:100B900001F06EFF9A490978D4F8B80101F0EEFB34
:100BA000204601F0F5FF48B9002240F22771D4F841
:100BB000B80101F082FB002084F8C40140F22661F4
:100BC000D4F8B80101F05EFCE0B1204601F0E0FF8E
:100BD000002809DD8B49204601F04AFF8949097840
:100BE000D4F8B80101F0CAFB204601F0D1FF48B9A2
:100BF000002240F22661D4F8B80101F05EFB00202B
:100C000084F8C40138BD70B50446D4F8BC0100F0C6
:100C1000B7FE01283AD1D4F8C00100F0E4FED4F8C0
:100C2000BC0100F0C1FE0021D4F8B40100F08DFE3B
:100C3000204601F0ADFF002825DD204601F0A8FF89
:100C4000142810DC204601F0A3FFD4F8B41148604A
:100C5000204601F09DFF05462A4604F5D071204646
:100C600001F047FF09E01420D4F8B41148601422C1
:100C700004F5D071204601F03CFF0121D4F8B40105
:100C800000F063FE02E0002084F8C40170BDFEB5F0
:100C900006460C4600270025002C01DA0127644295
:100CA00000BF681CC5B20A2094FBF0F100FB1140A4
:100CB0003030C0B2C5F10A010DF801000A2094FBE2
:100CC000F0F4002CEDD1012F07D12D21681CC0B20A
:100CD0000546C0F10A000DF800100DF10A00411B95
:100CE0002A463046FFF72BFE3046FEBD2DE9F04781
:100CF00086B0804614461D464FF0000A00260022AA
:100D000013462046294602F0A3F903D24FF0010A08
:100D100085F0004598F8C69107E000223A4B20463E
:100D2000294602F0D1F904460D465FEA0900A9F10F
:100D3000010101F0FF09F0D12046294602F048F9EF
:100D4000074600BF701CC1B20E4698F8C601401C91
:100D5000814205D12E20C6F1140101AA50540CE0A5
:100D60000A20B7FBF0F100FB11703030C6F114011E
:100D700001AA50540A20B7FBF0F7002FE2D198F8EF
:100D8000C601801CB042DDDCBAF1010F07D12D2174
:100D9000701CC0B20646C0F1140001AA115406A886
:100DA000811B32464046FFF7CAFD404606B0BDE80B
:100DB000F08780F8C611704770B506460C460025CE
:100DC000002001E06D1C401C215C0029FAD12A465C
:100DD00021463046FFF7B3FD304670BD13B50446DB
:100DE000012201A92046FFF7AAFD20461CBD0146AD
:100DF00091F8C5017047000038000020003801401C
:100E0000390000203A0000200000244010B51A48A4
:100E1000006818B118480068FFF791FE10BD10B5C2
:100E20001648006818B115480068FFF788FE10BD25
:100E300010B51348006818B111480068FFF77FFE2D
:100E400010BD10B50C48006818B10B480068FFF7DA
:100E5000DAFE10BD10B50948006818B107480068EF
:100E6000FFF7D1FE10BD10B50548006818B1044861
:100E70000068FFF7C8FE10BD3C00002040000020C5
:100E8000440000205D480068401C5C4908607047D1
:100E90004FF0E021096921F004014FF0E0221161D7
:100EA000574951611146096941F0030111617047C9
:100EB0002DE9F0474FF0E021886902F0B6F80646C8
:100EC0000022504B01F02CFF04460D464B480068B1
:100ED00002F0ABF8064600224B4B01F06DFE804657
:100EE00022462B4602F024FA484A03C248484749A2
:100EF0000CC803C902F01CFA0446464A464B02F0ED
:100F0000E1F907D20022404B404903C902F010FA30
:100F10003E4A03C23D48D0E900103D4AC2E90010F4
:100F20003A4903C9BDE8F0872DE9FC5F83460C46CA
:100F3000FFF7BEFF05460E4600BF204602F075F8DB
:100F400007460022354B01F0EBFE81468A46FFF74B
:100F5000AFFF07462A46334602F0EAF94A465346AF
:100F6000CDE9000102F074F8E7D3BDE8FC9F2DE95C
:100F7000FC5F83460C46FFF79BFF05460E4600BF0D
:100F8000204602F052F807460022254B01F0C8FE29
:100F900081468A46FFF78CFF07462A46334602F011
:100FA000C7F94A465346CDE9000102F051F8E7D3AC
:100FB000BDE8FC9F2DE9FC5F83468A46FFF778FF7A
:100FC00004460D4600BF504602F02FF806460F4675
:100FD000FFF76EFF22462B46CDE9000102F0A8F98B
:100FE000804632463B4602F033F8ECD3BDE8FC9F26
:100FF00000B50C48FFF74CFF00BD00004C0000207E
:1010000040548900882A61410000F03F50000020D0
:1010100058000020AE47E17A14AEEF3F80842E41A5
:1010200000408F4048000020704737B582B0054629
:101030000C468DF804409DF810008DF80500012045
:101040000090012201A9FD48FFF779FC002000E093
:10105000401CFB498842FBD3F848FFF75CFD0028A1
:1010600004DD01226946F548FFF7EDFC9DF800001C
:10107000A04204D1012204A9F048FFF760FC05B0AA
:1010800030BD10B504460F2201212046FFF7CDFFE9
:1010900010BD10B504462046FFF7F3FF8D222A212C
:1010A0002046FFF7C2FF3E222B212046FFF7BDFF5F
:1010B0001E222D212046FFF7B8FF00222C212046BA
:1010C000FFF7B3FF402215212046FFF7AEFF3D2278
:1010D00011212046FFF7A9FF10BD7CB505460C463F
:1010E000D8A00068019044F0800000900122694679
:1010F000D248FFF724FC002000E0401CD049884281
:10110000FBD3CE48FFF707FD002804DD012201A92B
:10111000CA48FFF798FC9DF804007CBD2DE9F0411A
:1011200005460E46144631462846FFF7D6FF0746C9
:1011300047EA040231462846FFF777FFBDE8F08111
:101140002DE9F04105460E46144631462846FFF784
:10115000C4FF074627EA040231462846FFF765FF29
:10116000BDE8F0812DE9FF4F83B00E4690469946C9
:10117000DDF844A0022002904FF0000B0020019007
:10118000122000900C2E05D00E2E08D18346102080
:10119000019005E04FF0770B3020019000E000BF98
:1011A00000BF4BF0800202210398FFF73EFF802230
:1011B00004210398FFF7C4FF002201210398FFF7E1
:1011C00034FF80220A210398FFF7A8FF002506E0DC
:1011D00018F8052009210398FFF727FF6D1C4D45DE
:1011E000F6D3324601210398FFF71FFF0C2E04D1DE
:1011F00080220D210398FFF791FF4FF4167500BF71
:1012000004210398FFF769FF04466D1E35B104F011
:10121000010018B9019820400028F1D080220D214A
:101220000398FFF78DFF002D3CD006210398FFF7B0
:1012300054FF00F01B0090BB0020029004EA0B005A
:1012400000F0010008B1012002900C2E2AD10A21E1
:101250000398FFF742FF04460C210398FFF73DFF78
:1012600000F007072FB1601E07EBC000CAF80000AE
:1012700002E0E000CAF8000004B9012400988442AA
:1012800001D90098C4B2002506E009210398FFF7B0
:1012900024FF109948556D1CA542F6D302E0FFE7E4
:1012A0000220029080220C210398FFF737FF0022D2
:1012B00001210398FFF7B9FE029807B0BDE8F08F4F
:1012C000FEB507460D46144607220D213846FFF7A6
:1012D000ACFE257002A8012322460C21CDE9004076
:1012E0003846FFF73FFF064616B90298102800D08F
:1012F00002263046FEBD7FB504466A4626212046BA
:10130000FFF7DEFF054615B9012004B070BD0020CF
:10131000FBE72DE9FE4380460C46002700220D2105
:101320004046FFF782FE932020702020607002A8C4
:10133000022322460C21CDE900404046FFF712FF70
:1013400006465EB9002503E0605D4740681CC5B2F3
:10135000042DF9DB605DB84200D002263046BDE8BE
:10136000FE837FB5044669462046FFF7D2FF054657
:10137000009820609DF80400207115B9012004B088
:1013800070BD0020FBE770B5044614212046FFF72E
:10139000A4FE054605F0030020B9032214212046CF
:1013A000FFF7BCFE70BD70B5044614212046FFF760
:1013B00094FE054605F0030020B9032214212046BF
:1013C000FFF7BEFE70BD2DE9F04781460F469046FF
:1013D0001D46042205214846FFF7B2FE80220A215D
:1013E0004846FFF79BFE002406E03A5D0921484687
:1013F000FFF71BFE601CC4B24445F6DB032201214B
:101400004846FFF712FEFF2400BF05214846FFF7BC
:1014100064FE0646601EC4B21CB106F0040000283B
:10142000F3D022214846FFF758FE28702121484674
:10143000FFF753FE6870BDE8F0870000340300201A
:10144000A0860100010000007FB5044650208DF801
:10145000080000208DF809000DF10A03022202A9FC
:101460002046FFF7B0FF03A802A9042302AACDE992
:1014700000100C212046FFF775FE05467FBD70B5B4
:1014800086B005460C4650208DF80C0020788DF86B
:101490000D002078401CC0B28DF80E002078801C12
:1014A000C0B28DF80F002078C01CC0B28DF81000BB
:1014B0002078001DC0B28DF8110005A803A90423EF
:1014C00003AACDE900100C212846FFF74BFE064683
:1014D00006B070BD2DE9F04186B080460F469320DE
:1014E0008DF8080070208DF80900002405E0395DB2
:1014F00002AAA01C1154601CC4B2052CF7DB0DF12C
:101500000F03072202A94046FFF75DFF05A802A9C5
:10151000092302AACDE900100C214046FFF722FE64
:1015200005462DB90598182802D19DF8086000E0FD
:101530000026304606B0BDE8F0812DE9F04786B0C0
:1015400081460E4617469846DDF838A08DF80860AB
:101550008DF80970002406E018F8041002AAA01CF7
:101560001154601CC4B2062CF6DB002407E01AF804
:10157000041002AA04F108001154601CC4B2042C27
:10158000F5DB05A802A90C2302AACDE900100E2163
:101590004846FFF7E7FD054605B10225284606B097
:1015A000BDE8F087FEB507460D4614463020207092
:1015B0006570A31C022221463846FFF704FF02A8EB
:1015C000042322460C21CDE900403846FFF7CAFD2E
:1015D000064616B90298902800D002263046FEBD75
:1015E0002DE9F04188B080460E461746A0208DF8C0
:1015F00008008DF809600DF10A03022202A9404695
:10160000FFF7E1FE07A802A9042302AACDE9001012
:101610000C214046FFF7A6FD054645B9079804286A
:1016200005D19DF8080000F00F000A2800D002251F
:1016300025BB002404E0385D02A90855601CC4B233
:10164000102CF8DB06AB102202A94046FFF7BBFEC8
:1016500007A802A9122302AACDE900100C214046D6
:10166000FFF780FD054645B90798042805D19DF888
:10167000080000F00F000A2800D00225284608B014
:10168000BDE8F08110B588B000200323CDE9043017
:1016900006900790012007211A460023CDE9003269
:1016A000CDE902104FF4165202210648FEF78EFFD4
:1016B0000446054A054901F0A1F90548FFF7B4FCC5
:1016C00008B010BD34030020000000089705000892
:1016D000FC04002031490143314A1160704770B564
:1016E000002100230F22C47804B32D4C246804F495
:1016F000E064C4F5E064210AC1F10403CA404478FF
:1017000004FA03F18478144021430901254C06783A
:10171000A155047804F01F050124AC4005786D1133
:10172000AD0005F1E025C5F8004109E0047804F0BA
:101730001F050124AC401C4D0678761145F8264063
:1017400070BD1A4A0A400243154B1B1F1A607047AE
:1017500039B1134A121D12680243114B1B1D1A6046
:1017600006E00F4A121D126882430D4B1B1D1A60C2
:101770007047042808D14FF0E021096941F00401C5
:101780004FF0E022116107E04FF0E021096921F0FC
:1017900004014FF0E0221161704700000000FA05DB
:1017A0000CED00E000E400E080E100E080FFFF1FBE
:1017B00001684FF6FE721140016000210160416036
:1017C0008160C1608D49884208D18C4908394968D7
:1017D00041F00F01894A083A51608AE08749143183
:1017E000884208D185490839496841F0F001834AA7
:1017F000083A51607DE081492831884208D17F490B
:101800000839496841F470617C4A083A516070E0D7
:101810007A493C31884208D178490839496841F40D
:101820007041764A083A516063E074495031884209
:1018300008D172490839496841F470216F4A083A61
:10184000516056E06D496431884208D16B490839CE
:10185000496841F47001694A083A516049E06749B2
:101860007831884208D165490839496841F070618A
:10187000624A083A51603CE06149884206D1011F42
:10188000096841F00F01021F116032E05C49143118
:10189000884208D15A49091F096841F0F001584AA5
:1018A000121F116025E056492831884208D1544959
:1018B000091F096841F47061514A121F116018E054
:1018C0004F493C31884208D14D49091F096841F40C
:1018D00070414B4A121F11600BE049495031884258
:1018E00007D14749091F096841F47021444A121F72
:1018F0001160704710B50022026847F6F0739A43F2
:101900000C6A8B6823430C6923434C6923438C691D
:101910002343CC6923434C6A23438C6A23431A43F1
:101920000260CB6843600B6883604B68C36010BD86
:101930000021016041608160C1600161416181619C
:10194000C161016241628162704721B1026842F067
:101950000102026004E002684FF6FE731A40026062
:1019600070471AB103680B43036002E003688B43BE
:1019700003607047416070470146486880B2704715
:1019800001460020002201F080531BB11C4B083B94
:101990001A6802E0194B083B1A6802EA01030BB10E
:1019A000012000E00020704700F0805119B1144977
:1019B000091F086002E01149083948607047014674
:1019C0000020002201F080531BB10D4B083B1A6828
:1019D00002E00A4B083B1A6802EA01030BB101203E
:1019E00000E00020704700F0805119B10449091F40
:1019F000086002E001490839486070470800024069
:101A00000804024010B50446CC48844208D10121A4
:101A1000042000F02DFB0021042000F029FB46E00B
:101A2000C748844208D10121082000F021FB002191
:101A3000082000F01DFB3AE0C248844208D1012191
:101A4000102000F015FB0021102000F011FB2EE00B
:101A5000BD48844208D10121202000F009FB00216B
:101A6000202000F005FB22E0B848844208D1012183
:101A7000402000F0FDFA0021402000F0F9FA16E0C5
:101A8000B348844208D10121802000F0F1FA0021FE
:101A9000802000F0EDFA0AE0AE48844207D101212F
:101AA000801500F0E5FA0021A01500F0E1FA10BD64
:101AB00010B50121084600F0DBFA0021012000F0FA
:101AC000D7FA10BD2DE9F04102460025002600207E
:101AD00000230024002791F803C00CF00F0591F8B3
:101AE00003C00CF0100CBCF1000F03D091F802C041
:101AF0004CEA050591F800C0BCF1000F31D0146824
:101B000000202BE04FF0010C0CFA00F3B1F800C0FC
:101B10000CEA03069E4220D183004FF00F0C0CFA12
:101B200003F7BC4305FA03FC4CEA040491F803C034
:101B3000BCF1280F06D14FF0010C0CFA00FCC2F8E2
:101B400014C00AE091F803C0BCF1480F05D14FF072
:101B5000010C0CFA00FCC2F810C0401C0828D1D3BC
:101B60001460B1F800C0BCF1FF0F34DD54680020F0
:101B70002EE000F1080C4FF0010808FA0CF3B1F860
:101B800000C00CEA03069E4221D183004FF00F0CE7
:101B90000CFA03F7BC4305FA03FC4CEA040491F881
:101BA00003C0BCF1280F05D100F1080C08FA0CF8AD
:101BB000C2F8148091F803C0BCF1480F07D100F1BE
:101BC000080C4FF0010808FA0CF8C2F81080401C0D
:101BD0000828CED35460BDE8F0814FF6FF71018034
:101BE000022181700421C170704702460020936871
:101BF0000B400BB1012000E00020704701468868CF
:101C000080B2704702460020D3680B400BB1012020
:101C100000E0002070470146C86880B2704701614B
:101C20007047416170470AB1016100E0416170474E
:101C3000C16070474FF480320A43826181618261E2
:101C400082698269704702460020434B18684FF64C
:101C50008073184040EA021008433F4B18607047F9
:101C60003E49C8617047F0B50A46002300240021B0
:101C7000002500F00046B6F1004F02D1364EF16962
:101C800001E0354E7168C0F3034583B200F440169D
:101C9000B6F5401F08D121F070612F4E766826F00E
:101CA00070662D4F7E6012E000F48016B6F5801F3E
:101CB00006D1032606FA05F4A14341F0706106E05F
:101CC000460D360103FA06F6B14341F0706122B1C8
:101CD000460D360103FA06F6314300F00046B6F130
:101CE000004F02D11C4EF16101E01B4E7160F0BD4E
:101CF00030B500228B071C0F0F2303FA04F2164B9A
:101D000008338C1053F824309343134C08348D104F
:101D100044F8253023468C1053F824308C07240FC8
:101D200000FA04F423430C4C08348D1044F8253099
:101D300030BD0A49DC3108607047000000080140EE
:101D4000000C014000100140001401400018014047
:101D5000001C014000200140000001400000204222
:101D6000DF48006840F00100DD490860084640682F
:101D7000DC490840DA49486008460068DA4908400A
:101D8000D74908600846006820F4802008600846AB
:101D9000406820F4FE0048604FF41F0088607047E0
:101DA000CF49096821F48031CD4A11601146096894
:101DB00021F480211160B0F5803F03D0B0F5802F71
:101DC0000ED106E0C649096841F48031C44A116069
:101DD00007E0C349096841F4A021C14A116000E04D
:101DE00000BF00BF704710B501460022002300204D
:101DF0004A11012A02D1BA4C236806E0022A02D114
:101E0000B74C236A01E0B64C636A01F01F0201245B
:101E100094401C400CB1012000E0002010BD38B5FA
:101E2000002000900024002500BF3120FFF7DBFFD9
:101E300005460098401C00900098B0F5A06F01D0B6
:101E4000002DF2D03120FFF7CEFF08B1012400E0D1
:101E50000024204638BD01460020A14A106820F029
:101E6000F80040EAC10010607047A0490860704760
:101E7000024600209A4B586820F47C1042EA010385
:101E80001843974B58607047984908667047014659
:101E90000020934A506820F00300084350607047C8
:101EA0008F48406800F00C007047014600208C4AC3
:101EB000506820F0F0000843506070470146002051
:101EC000874A506820F4E06008435060704701463C
:101ED0000020834A506820F4605040EAC1005060FE
:101EE000704729B17E4A527A02437D4B5A7204E010
:101EF0007B4A527A82437A4B5A7270477B49D83177
:101F00000860704701460020754A506820F4404040
:101F10000843506070470021714A20321170704AA6
:101F200082F82010012802D004280AD104E00121FF
:101F30006B4A2032117005E00521694A2032117088
:101F400000E000BF00BF70476949086070476449FE
:101F5000096A0143624A1162704765494439086061
:101F6000704730B500210022002400235C4D6D68CD
:101F700005F00C0121B1042905D0082923D105E081
:101F80005C4D056022E05B4D05601FE0544D6D68BF
:101F900005F47012524D6D6805F48034022505EB8E
:101FA00092421CB9544D554305600BE04C4D6D6891
:101FB00005F400351DB1504D5543056002E04D4D0F
:101FC0005543056002E04B4D056000BF00BF444D26
:101FD0006D6805F0F0010909484D6B5C0568DD404E
:101FE00045603F4D6D6805F4E061090A434D6B5C47
:101FF0004568DD4085603A4D6D6805F46051C90A59
:102000003E4D6B5C4568DD40C560354D6D6805F43F
:102010004041890B3A4D6B5CC568B5FBF3F5056132
:1020200030BD29B12E4A526902432D4B5A6104E05A
:102030002B4A526982432A4B5A61704729B1284A78
:1020400092690243264B9A6104E0254A92698243D1
:10205000234B9A61704729B1214AD2690243204B30
:10206000DA6104E01E4AD26982431D4BDA6170478F
:1020700029B11B4AD2680243194BDA6004E0184ABE
:10208000D2688243164BDA60704729B1144A12694C
:102090000243134B1A6104E0114A12698243104B48
:1020A0001A61704712494039086070470F49C86487
:1020B00070470B49C87170470948406A40F080700A
:1020C00007494862704701460020054A92680A4065
:1020D0000AB1012000E00020704701498872704772
:1020E000001002400000FFF8FFFFF6FE0000424231
:1020F0008004424200127A0000093D006000002086
:102100007000002010B50446FB48844209D101212B
:102110008803FFF7ADFF00214FF48040FFF7A8FFD1
:1021200032E0F648844209D101214804FFF7ADFFAF
:1021300000214FF40030FFF7A8FF25E0F04884426B
:1021400009D101218804FFF7A0FF00214FF480206E
:10215000FFF79BFF18E0EB48844209D10121C80436
:10216000FFF793FF00214FF40020FFF78EFF0BE0F5
:10217000E548844208D101210805FFF786FF0021C8
:102180004FF48010FFF781FF10BD2DE9F04786B0B6
:1021900005460E460024A24600BFA1460027B0898E
:1021A00000B100BF2F462C8A4CF6FF700440F08827
:1021B00004432C82AC894EF6F3100440B088318978
:1021C0000843718908430443AC81AC8A4FF6FF4051
:1021D0000440B0890443AC8201A8FFF7C2FEC648A0
:1021E000874202D1DDF810A001E0DDF80CA0A8893B
:1021F00000F4004040B10AEBCA0000EB0A1031685D
:102200004900B0FBF1F807E00AEBCA0000EB0A1046
:1022100031688900B0FBF1F86420B8FBF0F00401EC
:102220002009642101FB1089A88900F4004040B115
:10223000322000EBC900B0FBF1F000F007000443CE
:1022400008E0322000EB09106421B0FBF1F000F04F
:102250000F0004432C8106B0BDE8F0874FF41651FF
:10226000016000218180C18001810C214181002118
:102270008181704710B502460020108A4FF2FF039B
:1022800018400B884C8823438C882343CC882343F5
:102290001843108210BD0021018041808180C180DF
:1022A000704721B1828942F40052828104E0828920
:1022B0004DF6FF731A4082817047F0B50346002443
:1022C00000260025002040F66A17B94200D100BF61
:1022D0001846C1F3421401F01F06012707FA06F55C
:1022E000012C01D10C3004E0022C01D1103000E0AF
:1022F00014301AB107682F43076002E00768AF4344
:102300000760F0BD1AB1838A0B43838202E0838A9F
:102310008B4383827047028A4FF6F0731A40028221
:10232000028A0A430282704782894FF2FF731A4081
:10233000828182890A438281704721B1828942F079
:102340000202828104E082894FF6FD731A40828185
:102350007047028A4FF6DF731A400282028A0A43EC
:102360000282704721B1028A42F48042028204E074
:10237000028A4BF6FF731A4002827047C1F30802CB
:102380008280704701468888C0F3080070478189C1
:1023900041F0010181817047028BD2B20283028B2E
:1023A00042EA012202837047028B02F47F420283D9
:1023B000028B0A430283704721B1828A42F02002D5
:1023C000828204E0828A4FF6DF731A40828270476D
:1023D00021B1828A42F01002828204E0828A4FF6A2
:1023E000EF731A408282704721B1828A42F008025C
:1023F000828204E0828A4FF6F7731A408282704725
:1024000021B1828942F40042828103E08289C2F3D1
:102410000E028281704721B1828A42F40062828278
:1024200004E0828A4FF2FF731A4082827047828AE8
:102430004FF6FB731A408282828A0A438282704777
:1024400021B1828A42F00202828204E0828A4FF63F
:10245000FD731A408282704702460020B1F5007F6A
:1024600000D100BF13880B400BB1012000E0002019
:10247000704701F40072B2F5007F00D100BFCA437B
:102480000280704770B5024600240023002500201A
:1024900040F66A16B14200D100BFC1F3421501F007
:1024A0001F03012606FA03F3012D02D1968933405A
:1024B00006E0022D02D1168A334001E0968A3340AD
:1024C0000C12012606FA04F41688344013B10CB13C
:1024D000012000E0002070BD10B50022002340F66E
:1024E0006A14A14200D100BF0A1201249440A3B291
:1024F000DC43048010BD000000380140004400406F
:1025000000480040004C004000500040094880470F
:1025100009480047FEE7FEE7FEE7FEE7FEE7FEE7C5
:10252000FEE7FEE7FEE7FEE704480549054A064BDD
:10253000704700002B260008ED00000878050020F9
:10254000780B002078070020780700200CB50020C9
:10255000019000906C48006840F480306A4908603F
:1025600000BF6948006800F4003000900198401CEA
:102570000190009818B90198B0F5A06FF1D16248A8
:10258000006800F4003010B10120009001E000204C
:1025900000900098012843D15C48006840F010008A
:1025A0005A4908600846006820F0030008600846A1
:1025B000006840F002000860534840685249486093
:1025C0000846406848600846406840F480604860BB
:1025D0000846406820F47C1048600846406840F493
:1025E000E81048600846006840F08070086000BF4E
:1025F0004548006800F000700028F9D04248406863
:1026000020F00300404948600846406840F002005E
:10261000486000BF3C48406800F00C000828F9D131
:102620000CBD10B5FFF792FF10BD10B5364800681D
:1026300040F00100344908600846406834490840C9
:102640003149486008460068324908402E49086010
:102650000846006820F4802008600846406820F49E
:10266000FE0048604FF41F008860FFF7DAFF4FF06C
:1026700000602949086010BD10B50021002000222B
:10268000214B5B6803F00C0121B1042906D0082915
:1026900028D107E0214B224C236027E01F4B204C20
:1026A000236023E0184B5B6803F47010164B5B68E3
:1026B00003F48032022303EB904022B9194B4343C9
:1026C000174C23600DE0104B5B6803F4003323B11B
:1026D000144B4343124C236003E0104B4343104C14
:1026E000236003E00D4B0E4C236000BF00BF064B80
:1026F0005B68C3F303130C4CE15C094B1B68CB40D4
:10270000074C236010BD0000001002400020024072
:102710000000FFF8FFFFF6FE08ED00E000127A006F
:102720007400002000093D007800002070477047C9
:102730007047000070B5064C7C44064D7D4403E0B4
:10274000206820448047241DAC42F9D170BD0000B0
:10275000E80D0000F00D0000004870474C05002017
:1027600070B5064600F030F8056806F10B0020F061
:102770000704B4429CBF002070BD2B466A68BAB102
:102780001068A04210D304F1080188423CBF506891
:10279000586007D35168101941601168091B016026
:1027A00058601460101D70BD13465268002AE7D1AE
:1027B0002146284600F010F80028DED170BD000048
:1027C0000048704714050020004870471C05002091
:1027D000704770477047704738B504460A46002076
:1027E0006946AFF30080002808BF38BD0246009953
:1027F000204600F087F8012038BD012000F0A2B883
:10280000F8B5AFF30080054600200C46102000BF4D
:102810000646A819A0420DD9324669460020AFF3FA
:102820000080070008BF00F08DF80098A04218BF94
:102830000546C419FFF7C8FF05600746F01D20F0E4
:1028400007004619284600F00AF8B44208BFF8BD50
:10285000A21B31463868BDE8F84000F053B80021AB
:102860000160C0E9011070471020704770B5044640
:10287000051FFFF7A9FF0068002C14BF446870BD56
:10288000002C18BFAC423CBF20466468F8D30168F6
:102890000A18AA4218BF456003D12A6805461144A8
:1028A000016028684119A1421CBF6C6070BD61685D
:1028B000696021680844286070BD7546FFF780FF95
:1028C000AE4605006946534620F00700854618B01D
:1028D00020B5FFF729FEBDE820404FF000064FF07D
:1028E00000074FF000084FF0000B21F00701AC4645
:1028F000ACE8C009ACE8C009ACE8C009ACE8C00964
:102900008D467047034640688C46002818BF8842B1
:102910003CBF03464068F8D318681844884207D083
:102920000CF1030020F00700001D411A521A014665
:10293000081D0A60FFF79ABF0446AFF300802046E7
:10294000FDF724FC10B500F00BF8BDE8104000F0D6
:1029500001B87047002801D000F02AB87047000085
:1029600010B5012805D0002103A000F027F80120B0
:1029700010BD09A1F8E7000053494752544D454D99
:102980003A204F7574206F662068656170206D6510
:102990006D6F7279000000003A2048656170206D0B
:1029A000656D6F727920636F727275707465640003
:1029B00001491820ABBEFEE72600020070B50546AF
:1029C0000C460A2000E06D1C00F011F835B12878A3
:1029D0000028F8D102E0641C00F009F814B1207856
:1029E0000028F8D1BDE870400A20AFF3008008B598
:1029F00069468DF800000320ABBE08BD2DE9F0410B
:102A0000074690460E4600251020FFF7A9FE040059
:102A10000BD0C4F80C80C4E90176FFF79DFE016875
:102A2000216004602846BDE8F0810125FAE72DE920
:102A3000F0410646FFF790FE804613E026B1E068BD
:102A4000B04201D025460EE020682860D4E901019B
:102A5000D8F8007088472046FFF708FFD8F8000034
:102A6000B84200D045462C68002CE7D1BDE8F08183
:102A70000246B2F8CA00002801DC0020704732F894
:102A8000CC3F1088401C22F8CC09D05C0870B2F80A
:102A9000CC00B2F8C830984202DB0020A2F8CC008B
:102AA000B2F8CA00401EA2F8CA000120E6E710B53D
:102AB0000246B2F8CA00B2F8C830984201DB0020E2
:102AC00010BD0B7832F8CE4F1088401C22F8CE098A
:102AD0001355B2F8CE00B2F8C830984202DB00209D
:102AE000A2F8CE00B2F8CA00401CA2F8CA00012029
:102AF000E6E730B50346B3F8CA00904201DA002099
:102B000030BD002012E033F8CC5F1C88641C23F831
:102B1000CC495C5D0C54B3F8CC40B3F8C850AC421F
:102B200002DB0024A3F8CC40441CA0B29042EADBB4
:102B3000B3F8CA00801AA3F8CA000120E0E770B514
:102B40000346B3F8CA001044B3F8C840A04201DD00
:102B5000002070BD002012E00D5C33F8CE6F1C88A1
:102B6000641C23F8CE499D55B3F8CE40B3F8C85045
:102B7000AC4202DB0024A3F8CE40441CA0B2904239
:102B8000EADBB3F8CA001044A3F8CA000120E0E76A
:102B90000146B1F8CA007047002120F8CA1F4180E1
:102BA0008180CA387047C82120F8C81F00214180A1
:102BB0008180C180C838704710B591EA030F48BFC3
:102BC00083F0004300F1BC83841A71EB030C05D23F
:102BD000121943EB0C03001B61EB0C01DFF824E13D
:102BE0004FEA1154A4EB135C1EEA430F18BF9EEA90
:102BF000445F73D023EA0E03DCF1200E21EA045176
:102C000043F4801332D322FA0CFE10EB0E0023FAA9
:102C10000CFE41EB0E01CCF1200E03FA0EFE10EB80
:102C20000E0051F10001B1F5801FCCF1200E32D21F
:102C300001EB045112FA0EF2BDE8104058BF704784
:102C4000401C38BF5FEA420218BF7047002814BF1B
:102C500020F0010041F100014FEA410313F5001F8C
:102C600038BF7047A1F1C04100F026BB012A43EBF9
:102C70000302ACF1200CDCF11F0E32BF4FF0000E4E
:102C800023FA0CF310EB030041EB0451B4EB115F9A
:102C9000D0D0A1EB045101F5801149085FEA300062
:102CA00001EB04510ED350F1000038BF12FA0EFEB2
:102CB00008D1BDE81040C9E7401C38BF5FEA4202B6
:102CC000CAD1C3E7BDE810404FEA410313F5001F26
:102CD00038BF7047A1F1C04100F0EEBA9EEA445FF0
:102CE00008D011EA5E0FBDE8104004BF01F00041BA
:102CF00000207047BDE8104070B500F08FFA00BFAB
:102D000064FBBE3E0000E0FF491058BFC1F14041E6
:102D10005B1058BFC3F140438B42EFF30080704714
:102D20002DE9C04130B4DFF8A0C23CEA111418BF4D
:102D30003CEA131400F0EC8081EA03051CEA11144C
:102D400044EAD57418BF1CEA131500F0C780A4EB41
:102D500005044FF0004545EAC12145EAC32341EA95
:102D6000505143EA525304F17F74994204F5003400
:102D70004FEAC0204FEAC22208BF904200F09C8078
:102D80004FEA13650FF24016765D4FEA134506FBD6
:102D900005F7C7F1807706FB07F74FEAD737A7FBA0
:102DA00003687642C8F58038A7FB06CE38BFA8F185
:102DB000010807FB08E64FF0000EA6FB028CE6FBBD
:102DC00003CEDCF1000CCEF1004E38BFAEF1010EA7
:102DD000A6FB0C584FF000074FF00005E6FB0E87EE
:102DE000A1FB08C6A0FB07CE16EB0E0645F10005B9
:102DF000E1FB076515F1E04E7EBFA4F580345FEA84
:102E000046066D4116F1800745F100054FEA172788
:102E10004FEA066647EA0567A6F1DE46B6F1805F2F
:102E20004FEA15251FD9384624F0010C05EBC47173
:102E3000BCF1FE6F01EB0C1102D8F0BCBDE80081C3
:102E400024425CBF01F5801E9EEAC47F02D4F0BC20
:102E5000BDE80081244238D4F0BCA1F1C041BDE8F6
:102E6000004100F029BA4FEAD22242EA43524FEA27
:102E7000D323A7FB02864FEAD02040EA415007FB4C
:102E800003661EEA0E0F4FEAD12105FB026658BF0A
:102E9000A6EB0056B6EB00564FEA520E4EEAC37E42
:102EA00018EB0E0E56EB530EBDD518EB02085E4123
:102EB0007F1C55F10005B6E74FF480154FF0000771
:102EC0004FF000064FF00008ADE7F0BC4FF00000F7
:102ED00001F1C04101F00041BDE8008111EA0C1F81
:102EE0000CEA131500D00CE013EA0C1F00F025804B
:102EF0004FF00000F0BC81EA030101F00041BDE8A1
:102F00000081F0BCBDE8004181EA030100F0D4B9C2
:102F1000F0BCBDE8004170B500F080F9097EFC3ED0
:102F200000F007B881EA03014FF0000001F0004112
:102F3000704781EA030100F0BFB9F0BCBDE8004171
:102F40004FF0000021497047FFFDFBF9F7F5F4F25F
:102F5000F0EEEDEBE9E8E6E4E3E1E0DEDDDBDAD834
:102F6000D7D5D4D3D1D0CFCDCCCBCAC8C7C6C5C492
:102F7000C2C1C0BFBEBDBCBBBAB9B8B7B6B5B4B3A9
:102F8000B2B1B0AFAEADACABAAA9A8A8A7A6A5A494
:102F9000A3A3A2A1A09F9F9E9D9C9C9B9A99999858
:102FA0009797969595949393929191908F8F8E8EFB
:102FB0008D8C8C8B8B8A8989888887878685858488
:102FC00084838382828181800000FF070000F87F74
:102FD0004FEA1153A3F58063D3F11E03A8BFD3F1C9
:102FE000200C08DB4FF0004242EAC12252EA505264
:102FF00032FA03F0704709420BD4102BC4BF0020F3
:10300000704703F5787CBCF1FF3F05D04FF0FF30EF
:1030100070474FF00000704770B500F0FFF800BF38
:103020004992248000207047F0E7B0FA80F310FA4C
:1030300003F10AD0C3F11D0303F580634FEA415049
:103040004FEA035202EBD12170474FF00000704766
:1030500051EA030C17D41CF5801F58BFBCF5801F24
:1030600000F10680994218BF704708BF9042704730
:1030700007D711F5801F58BF13F5801F19D4994247
:103080007047894270471CF5801F08D5BCF5801F2A
:10309000F7D58B4218BF704708BF824270474FF484
:1030A000001C1CEB410F38BF1CEB430F01D28B42BD
:1030B000704770B500F0B2F8922449004FF000510B
:1030C0004FF08053FFF720BEDFF848C170B51CEA0F
:1030D000111E1EBF1CEA13159EEA0C0F95EA0C0F79
:1030E00000F06F8081EA030423EA4C134EEAD47E99
:1030F00021EA4C1141F4801143F48013AE44A1FB4A
:10310000024CA0FB0365AEF17F7E361955EB0C0532
:10311000A1FB034C4CF10003A0FB021C16EB0C06B8
:10312000654153F10003094218BF46F0010613F44C
:10313000007F0BD14FEA03314FEA0530340341EAF7
:10314000155140EA16506FF003020AE04FEAC3211E
:103150004FEAC520F40241EA555140EA56506FF05B
:10316000020202EB2E4201EB025585EACE710AD033
:103170005FEA440C18BF24F0004450F1000041F114
:10318000000120EAD47040F2FE7C624500D270BD9E
:10319000A84214BF4FF080444FF04044002E08BFB7
:1031A0000024BEF1806FA8BFA1F1C041BDE870400E
:1031B00080F282804FF0000001F1C04101F0004137
:1031C00070479EEA0C0F0CEA131518BF95EA0C0F16
:1031D00006D04FF0000081EA030E0EF0004170BDF2
:1031E00000F01CF88900013E00F007B800F009B8B3
:1031F0004FEA430C5FEA5C5C08D081EA030100F00F
:103200005BB84FEA410C5FEA5C5CF6D14FF000001E
:10321000014970470000FF070000F87F0EF1020E21
:103220002EF0030E5EF8046B364205D4012A43EB00
:10323000030515F5001F12D8012841EB010C1CF500
:10324000001F0CD80ED14FEAD17C15F5001F0CEBF6
:103250004C0C0CF1020C08BF4CEBD37C04E04FF09B
:10326000080C01E04FEAD37C0CEB4C0526FA05F67E
:1032700006F00706B6F1040C06D20EEB860CBDE88C
:1032800070404CF0010C6047DFE80CF0090B0202C3
:103290004FF000414FF00000A1F5002170BD19462C
:1032A0001046012851EB010418BFD4F5001484BF67
:1032B000002001F0004170BD0808A0F500114FEAA0
:1032C0003101704753EA010C17D41CF5801F58BF19
:1032D000BCF5801F00F106808B4218BF704708BF05
:1032E0008242704707D713F5801F58BF11F5801F22
:1032F00019D48B4270479B4270471CF5801F08D53C
:10330000BCF5801FF7D5994218BF704708BF90429F
:1033100070474FF4001C1CEB430F38BF1CEB410FF0
:1033200001D2994270470FB40CBC03BCFFF7C1BE79
:1033300010B591EA030F48BF83F000433FF544AC5A
:10334000841A71EB030C07D212198CF0004C43EB7A
:103350000C03001B61EB0C01DFF8A4E14FEA1154F0
:10336000A4EB135C1EEA430F18BF9EEA445F00F013
:10337000B08023EA6E03524221EA0451C3EB6E038C
:1033800038BF5B1EDCF1200E25D322FA0CFE10EBB9
:103390000E0043FA0CFE41EB0E01CCF1200E03FAB5
:1033A0000EFE10EB0E0051F10001CCF1200E29D4DD
:1033B00012FA0EF201EB0451BDE8104058BF7047FD
:1033C000401C1CBFB2F1004F704700280CBF491CC5
:1033D00020F00100704712EB020E43EB030218BF0E
:1033E0004FF0010E4EEA4202ACF1200CDCF11E0E51
:1033F00054D943FA0CFE10EB0E0051F1FF31CCF121
:103400001E0ED5D50EF1010E12FA0EFE404141EB13
:10341000010101EB445C5FEA5C5C10D910EBDE70EB
:1034200001EB045138BFBEF1004FBDE8104018BF9A
:10343000704700280CBF491C20F00100704730D2B3
:103440004FEAD42C11F5001124F400641BD0B1FA1A
:1034500081F20B3AA41AA41ED2F12003914030FA53
:1034600003F31943904001EBCC71002C01EB0451A4
:10347000BDE81040A8BF704701F1C0414FF0000007
:1034800001F000417047B0FA80F310FA03F100D167
:1034900010BDE41A173C4805C90AE4E701EB0451E2
:1034A00010BD491001EB0451BDE810404FEA300057
:1034B00002E04FF0000170474A0008BF0042F8D018
:1034C000B2F5001F28BF704701F000414FF0000027
:1034D00070479EEA445F07D011EA5E0FBDE81040D6
:1034E00004BF002100207047BDE8104070B5FFF711
:1034F00095FE00BF40DFF63E83F000411046704766
:103500000000E0FF303500080000002088000000C7
:1035100028010008B835000888000020F00A0000E3
:1035200044010008F3CFFFFFC9DAFFFF59E1FFFFB5
:10353000FFFFFFFFFFFF0004080C1014181C2024DD
:10354000282C3034383C0000000000CACFCBC0C16A
:10355000AAAAFFFFFFFFFFFFFFFFFFFFFFFFFFFF25
:10356000FFFFFFFFFFFFFFFF000000000000000063
:10357000000000000000000000000000000000004B
:10358000000000000000000000000000000000003B
:1035900000000000010203040102030406070809F9
:1035A0000204060800A24A04000000000000000017
:0835B0000102030406070809EB
:04000005080000ED02
:00000001FF
